{
  "_format": "hh-sol-artifact-1",
  "contractName": "ELEVENHERO",
  "sourceName": "contracts/MyNFT.sol",
  "abi": [
    {
      "inputs": [],
      "stateMutability": "nonpayable",
      "type": "constructor"
    },
    {
      "anonymous": false,
      "inputs": [
        {
          "indexed": true,
          "internalType": "address",
          "name": "owner",
          "type": "address"
        },
        {
          "indexed": true,
          "internalType": "address",
          "name": "approved",
          "type": "address"
        },
        {
          "indexed": true,
          "internalType": "uint256",
          "name": "tokenId",
          "type": "uint256"
        }
      ],
      "name": "Approval",
      "type": "event"
    },
    {
      "anonymous": false,
      "inputs": [
        {
          "indexed": true,
          "internalType": "address",
          "name": "owner",
          "type": "address"
        },
        {
          "indexed": true,
          "internalType": "address",
          "name": "operator",
          "type": "address"
        },
        {
          "indexed": false,
          "internalType": "bool",
          "name": "approved",
          "type": "bool"
        }
      ],
      "name": "ApprovalForAll",
      "type": "event"
    },
    {
      "anonymous": false,
      "inputs": [
        {
          "indexed": true,
          "internalType": "address",
          "name": "previousOwner",
          "type": "address"
        },
        {
          "indexed": true,
          "internalType": "address",
          "name": "newOwner",
          "type": "address"
        }
      ],
      "name": "OwnershipTransferred",
      "type": "event"
    },
    {
      "anonymous": false,
      "inputs": [
        {
          "indexed": true,
          "internalType": "address",
          "name": "from",
          "type": "address"
        },
        {
          "indexed": true,
          "internalType": "address",
          "name": "to",
          "type": "address"
        },
        {
          "indexed": true,
          "internalType": "uint256",
          "name": "tokenId",
          "type": "uint256"
        }
      ],
      "name": "Transfer",
      "type": "event"
    },
    {
      "inputs": [
        {
          "internalType": "address",
          "name": "to",
          "type": "address"
        },
        {
          "internalType": "uint256",
          "name": "tokenId",
          "type": "uint256"
        }
      ],
      "name": "approve",
      "outputs": [],
      "stateMutability": "nonpayable",
      "type": "function"
    },
    {
      "inputs": [
        {
          "internalType": "address",
          "name": "owner",
          "type": "address"
        }
      ],
      "name": "balanceOf",
      "outputs": [
        {
          "internalType": "uint256",
          "name": "",
          "type": "uint256"
        }
      ],
      "stateMutability": "view",
      "type": "function"
    },
    {
      "inputs": [
        {
          "internalType": "uint256",
          "name": "tokenId",
          "type": "uint256"
        }
      ],
      "name": "burn",
      "outputs": [],
      "stateMutability": "nonpayable",
      "type": "function"
    },
    {
      "inputs": [],
      "name": "count",
      "outputs": [
        {
          "internalType": "uint256",
          "name": "",
          "type": "uint256"
        }
      ],
      "stateMutability": "view",
      "type": "function"
    },
    {
      "inputs": [
        {
          "internalType": "uint256",
          "name": "tokenId",
          "type": "uint256"
        }
      ],
      "name": "getApproved",
      "outputs": [
        {
          "internalType": "address",
          "name": "",
          "type": "address"
        }
      ],
      "stateMutability": "view",
      "type": "function"
    },
    {
      "inputs": [],
      "name": "getPrice",
      "outputs": [
        {
          "internalType": "uint256",
          "name": "",
          "type": "uint256"
        }
      ],
      "stateMutability": "view",
      "type": "function"
    },
    {
      "inputs": [
        {
          "internalType": "address",
          "name": "owner",
          "type": "address"
        },
        {
          "internalType": "address",
          "name": "operator",
          "type": "address"
        }
      ],
      "name": "isApprovedForAll",
      "outputs": [
        {
          "internalType": "bool",
          "name": "",
          "type": "bool"
        }
      ],
      "stateMutability": "view",
      "type": "function"
    },
    {
      "inputs": [
        {
          "internalType": "string",
          "name": "uri",
          "type": "string"
        }
      ],
      "name": "isContentOwned",
      "outputs": [
        {
          "internalType": "bool",
          "name": "",
          "type": "bool"
        }
      ],
      "stateMutability": "view",
      "type": "function"
    },
    {
      "inputs": [],
      "name": "name",
      "outputs": [
        {
          "internalType": "string",
          "name": "",
          "type": "string"
        }
      ],
      "stateMutability": "view",
      "type": "function"
    },
    {
      "inputs": [],
      "name": "owner",
      "outputs": [
        {
          "internalType": "address",
          "name": "",
          "type": "address"
        }
      ],
      "stateMutability": "view",
      "type": "function"
    },
    {
      "inputs": [
        {
          "internalType": "uint256",
          "name": "tokenId",
          "type": "uint256"
        }
      ],
      "name": "ownerOf",
      "outputs": [
        {
          "internalType": "address",
          "name": "",
          "type": "address"
        }
      ],
      "stateMutability": "view",
      "type": "function"
    },
    {
      "inputs": [
        {
          "internalType": "address",
          "name": "recipient",
          "type": "address"
        },
        {
          "internalType": "string",
          "name": "metadataURI",
          "type": "string"
        }
      ],
      "name": "payToMint",
      "outputs": [
        {
          "internalType": "uint256",
          "name": "",
          "type": "uint256"
        }
      ],
      "stateMutability": "payable",
      "type": "function"
    },
    {
      "inputs": [],
      "name": "price",
      "outputs": [
        {
          "internalType": "uint256",
          "name": "",
          "type": "uint256"
        }
      ],
      "stateMutability": "view",
      "type": "function"
    },
    {
      "inputs": [],
      "name": "renounceOwnership",
      "outputs": [],
      "stateMutability": "nonpayable",
      "type": "function"
    },
    {
      "inputs": [
        {
          "internalType": "address",
          "name": "to",
          "type": "address"
        },
        {
          "internalType": "string",
          "name": "uri",
          "type": "string"
        }
      ],
      "name": "safeMint",
      "outputs": [],
      "stateMutability": "nonpayable",
      "type": "function"
    },
    {
      "inputs": [
        {
          "internalType": "address",
          "name": "from",
          "type": "address"
        },
        {
          "internalType": "address",
          "name": "to",
          "type": "address"
        },
        {
          "internalType": "uint256",
          "name": "tokenId",
          "type": "uint256"
        }
      ],
      "name": "safeTransferFrom",
      "outputs": [],
      "stateMutability": "nonpayable",
      "type": "function"
    },
    {
      "inputs": [
        {
          "internalType": "address",
          "name": "from",
          "type": "address"
        },
        {
          "internalType": "address",
          "name": "to",
          "type": "address"
        },
        {
          "internalType": "uint256",
          "name": "tokenId",
          "type": "uint256"
        },
        {
          "internalType": "bytes",
          "name": "data",
          "type": "bytes"
        }
      ],
      "name": "safeTransferFrom",
      "outputs": [],
      "stateMutability": "nonpayable",
      "type": "function"
    },
    {
      "inputs": [
        {
          "internalType": "address",
          "name": "operator",
          "type": "address"
        },
        {
          "internalType": "bool",
          "name": "approved",
          "type": "bool"
        }
      ],
      "name": "setApprovalForAll",
      "outputs": [],
      "stateMutability": "nonpayable",
      "type": "function"
    },
    {
      "inputs": [
        {
          "internalType": "uint256",
          "name": "_price",
          "type": "uint256"
        }
      ],
      "name": "setPrice",
      "outputs": [],
      "stateMutability": "nonpayable",
      "type": "function"
    },
    {
      "inputs": [
        {
          "internalType": "bytes4",
          "name": "interfaceId",
          "type": "bytes4"
        }
      ],
      "name": "supportsInterface",
      "outputs": [
        {
          "internalType": "bool",
          "name": "",
          "type": "bool"
        }
      ],
      "stateMutability": "view",
      "type": "function"
    },
    {
      "inputs": [],
      "name": "symbol",
      "outputs": [
        {
          "internalType": "string",
          "name": "",
          "type": "string"
        }
      ],
      "stateMutability": "view",
      "type": "function"
    },
    {
      "inputs": [
        {
          "internalType": "uint256",
          "name": "tokenId",
          "type": "uint256"
        }
      ],
      "name": "tokenURI",
      "outputs": [
        {
          "internalType": "string",
          "name": "",
          "type": "string"
        }
      ],
      "stateMutability": "view",
      "type": "function"
    },
    {
      "inputs": [
        {
          "internalType": "address",
          "name": "from",
          "type": "address"
        },
        {
          "internalType": "address",
          "name": "to",
          "type": "address"
        },
        {
          "internalType": "uint256",
          "name": "tokenId",
          "type": "uint256"
        }
      ],
      "name": "transferFrom",
      "outputs": [],
      "stateMutability": "nonpayable",
      "type": "function"
    },
    {
      "inputs": [
        {
          "internalType": "address",
          "name": "newOwner",
          "type": "address"
        }
      ],
      "name": "transferOwnership",
      "outputs": [],
      "stateMutability": "nonpayable",
      "type": "function"
    },
    {
      "inputs": [
        {
          "internalType": "address",
          "name": "_to",
          "type": "address"
        },
        {
          "internalType": "uint256",
          "name": "_tokenId",
          "type": "uint256"
        }
      ],
      "name": "transferToken",
      "outputs": [],
      "stateMutability": "payable",
      "type": "function"
    }
  ],
  "bytecode": "0x608060405269d3c20dee1639f99c0000600a553480156200001f57600080fd5b506040518060400160405280600a81526020017f454c4556454e4845524f000000000000000000000000000000000000000000008152506040518060400160405280600381526020017f313148000000000000000000000000000000000000000000000000000000000081525081600090816200009d919062000420565b508060019081620000af919062000420565b505050620000d2620000c6620000d860201b60201c565b620000e060201b60201c565b62000507565b600033905090565b6000600760009054906101000a900473ffffffffffffffffffffffffffffffffffffffff16905081600760006101000a81548173ffffffffffffffffffffffffffffffffffffffff021916908373ffffffffffffffffffffffffffffffffffffffff1602179055508173ffffffffffffffffffffffffffffffffffffffff168173ffffffffffffffffffffffffffffffffffffffff167f8be0079c531659141344cd1fd0a4f28419497f9722a3daafe3b4186f6b6457e060405160405180910390a35050565b600081519050919050565b7f4e487b7100000000000000000000000000000000000000000000000000000000600052604160045260246000fd5b7f4e487b7100000000000000000000000000000000000000000000000000000000600052602260045260246000fd5b600060028204905060018216806200022857607f821691505b6020821081036200023e576200023d620001e0565b5b50919050565b60008190508160005260206000209050919050565b60006020601f8301049050919050565b600082821b905092915050565b600060088302620002a87fffffffffffffffffffffffffffffffffffffffffffffffffffffffffffffffff8262000269565b620002b4868362000269565b95508019841693508086168417925050509392505050565b6000819050919050565b6000819050919050565b600062000301620002fb620002f584620002cc565b620002d6565b620002cc565b9050919050565b6000819050919050565b6200031d83620002e0565b620003356200032c8262000308565b84845462000276565b825550505050565b600090565b6200034c6200033d565b6200035981848462000312565b505050565b5b8181101562000381576200037560008262000342565b6001810190506200035f565b5050565b601f821115620003d0576200039a8162000244565b620003a58462000259565b81016020851015620003b5578190505b620003cd620003c48562000259565b8301826200035e565b50505b505050565b600082821c905092915050565b6000620003f560001984600802620003d5565b1980831691505092915050565b6000620004108383620003e2565b9150826002028217905092915050565b6200042b82620001a6565b67ffffffffffffffff811115620004475762000446620001b1565b5b6200045382546200020f565b6200046082828562000385565b600060209050601f83116001811462000498576000841562000483578287015190505b6200048f858262000402565b865550620004ff565b601f198416620004a88662000244565b60005b82811015620004d257848901518255600182019150602085019450602081019050620004ab565b86831015620004f25784890151620004ee601f891682620003e2565b8355505b6001600288020188555050505b505050505050565b6139c080620005176000396000f3fe6080604052600436106101665760003560e01c8063715018a6116100d1578063a035b1fe1161008a578063c87b56dd11610064578063c87b56dd14610520578063d204c45e1461055d578063e985e9c514610586578063f2fde38b146105c357610166565b8063a035b1fe146104a3578063a22cb465146104ce578063b88d4fde146104f757610166565b8063715018a6146103a55780638da5cb5b146103bc57806391b7f5ed146103e757806395d89b411461041057806398d5fdca1461043b5780639f1cabc61461046657610166565b806323b872dd1161012357806323b872dd1461028057806342842e0e146102a957806342966c68146102d2578063615fd9e2146102fb5780636352211e1461032b57806370a082311461036857610166565b806301ffc9a71461016b57806306661abd146101a857806306fdde03146101d3578063081812fc146101fe578063095ea7b31461023b5780631072cbea14610264575b600080fd5b34801561017757600080fd5b50610192600480360381019061018d919061250a565b6105ec565b60405161019f9190612552565b60405180910390f35b3480156101b457600080fd5b506101bd6106ce565b6040516101ca9190612586565b60405180910390f35b3480156101df57600080fd5b506101e86106df565b6040516101f59190612631565b60405180910390f35b34801561020a57600080fd5b506102256004803603810190610220919061267f565b610771565b60405161023291906126ed565b60405180910390f35b34801561024757600080fd5b50610262600480360381019061025d9190612734565b6107b7565b005b61027e60048036038101906102799190612734565b6108ce565b005b34801561028c57600080fd5b506102a760048036038101906102a29190612774565b6109e6565b005b3480156102b557600080fd5b506102d060048036038101906102cb9190612774565b610a46565b005b3480156102de57600080fd5b506102f960048036038101906102f4919061267f565b610a66565b005b610315600480360381019061031091906128fc565b610ac2565b6040516103229190612586565b60405180910390f35b34801561033757600080fd5b50610352600480360381019061034d919061267f565b610bed565b60405161035f91906126ed565b60405180910390f35b34801561037457600080fd5b5061038f600480360381019061038a9190612958565b610c73565b60405161039c9190612586565b60405180910390f35b3480156103b157600080fd5b506103ba610d2a565b005b3480156103c857600080fd5b506103d1610d3e565b6040516103de91906126ed565b60405180910390f35b3480156103f357600080fd5b5061040e6004803603810190610409919061267f565b610d68565b005b34801561041c57600080fd5b50610425610d7a565b6040516104329190612631565b60405180910390f35b34801561044757600080fd5b50610450610e0c565b60405161045d9190612586565b60405180910390f35b34801561047257600080fd5b5061048d60048036038101906104889190612985565b610e16565b60405161049a9190612552565b60405180910390f35b3480156104af57600080fd5b506104b8610e51565b6040516104c59190612586565b60405180910390f35b3480156104da57600080fd5b506104f560048036038101906104f091906129fa565b610e57565b005b34801561050357600080fd5b5061051e60048036038101906105199190612adb565b610e6d565b005b34801561052c57600080fd5b506105476004803603810190610542919061267f565b610ecf565b6040516105549190612631565b60405180910390f35b34801561056957600080fd5b50610584600480360381019061057f91906128fc565b610ee1565b005b34801561059257600080fd5b506105ad60048036038101906105a89190612b5e565b610f1a565b6040516105ba9190612552565b60405180910390f35b3480156105cf57600080fd5b506105ea60048036038101906105e59190612958565b610fae565b005b60007f80ac58cd000000000000000000000000000000000000000000000000000000007bffffffffffffffffffffffffffffffffffffffffffffffffffffffff1916827bffffffffffffffffffffffffffffffffffffffffffffffffffffffff191614806106b757507f5b5e139f000000000000000000000000000000000000000000000000000000007bffffffffffffffffffffffffffffffffffffffffffffffffffffffff1916827bffffffffffffffffffffffffffffffffffffffffffffffffffffffff1916145b806106c757506106c682611031565b5b9050919050565b60006106da600861109b565b905090565b6060600080546106ee90612bcd565b80601f016020809104026020016040519081016040528092919081815260200182805461071a90612bcd565b80156107675780601f1061073c57610100808354040283529160200191610767565b820191906000526020600020905b81548152906001019060200180831161074a57829003601f168201915b5050505050905090565b600061077c826110a9565b6004600083815260200190815260200160002060009054906101000a900473ffffffffffffffffffffffffffffffffffffffff169050919050565b60006107c282610bed565b90508073ffffffffffffffffffffffffffffffffffffffff168373ffffffffffffffffffffffffffffffffffffffff1603610832576040517f08c379a000000000000000000000000000000000000000000000000000000000815260040161082990612c70565b60405180910390fd5b8073ffffffffffffffffffffffffffffffffffffffff166108516110f4565b73ffffffffffffffffffffffffffffffffffffffff161480610880575061087f8161087a6110f4565b610f1a565b5b6108bf576040517f08c379a00000000000000000000000000000000000000000000000000000000081526004016108b690612d02565b60405180910390fd5b6108c983836110fc565b505050565b600a54341015610913576040517f08c379a000000000000000000000000000000000000000000000000000000000815260040161090a90612d6e565b60405180910390fd5b3373ffffffffffffffffffffffffffffffffffffffff1661093382610bed565b73ffffffffffffffffffffffffffffffffffffffff1614610989576040517f08c379a000000000000000000000000000000000000000000000000000000000815260040161098090612dda565b60405180910390fd5b610994338383610a46565b61099c610d3e565b73ffffffffffffffffffffffffffffffffffffffff166108fc349081150290604051600060405180830381858888f193505050501580156109e1573d6000803e3d6000fd5b505050565b6109f76109f16110f4565b826111b5565b610a36576040517f08c379a0000000000000000000000000000000000000000000000000000000008152600401610a2d90612e6c565b60405180910390fd5b610a4183838361124a565b505050565b610a6183838360405180602001604052806000815250610e6d565b505050565b610a77610a716110f4565b826111b5565b610ab6576040517f08c379a0000000000000000000000000000000000000000000000000000000008152600401610aad90612e6c565b60405180910390fd5b610abf81611543565b50565b60006001600983604051610ad69190612ec8565b908152602001604051809103902060009054906101000a900460ff1660ff1603610b35576040517f08c379a0000000000000000000000000000000000000000000000000000000008152600401610b2c90612f2b565b60405180910390fd5b6611c37937e08000341015610b7f576040517f08c379a0000000000000000000000000000000000000000000000000000000008152600401610b7690612f97565b60405180910390fd5b6000610b8b600861109b565b9050610b97600861154f565b6001600984604051610ba99190612ec8565b908152602001604051809103902060006101000a81548160ff021916908360ff160217905550610bd98482611565565b610be38184611782565b8091505092915050565b600080610bf9836117ef565b9050600073ffffffffffffffffffffffffffffffffffffffff168173ffffffffffffffffffffffffffffffffffffffff1603610c6a576040517f08c379a0000000000000000000000000000000000000000000000000000000008152600401610c6190613003565b60405180910390fd5b80915050919050565b60008073ffffffffffffffffffffffffffffffffffffffff168273ffffffffffffffffffffffffffffffffffffffff1603610ce3576040517f08c379a0000000000000000000000000000000000000000000000000000000008152600401610cda90613095565b60405180910390fd5b600360008373ffffffffffffffffffffffffffffffffffffffff1673ffffffffffffffffffffffffffffffffffffffff168152602001908152602001600020549050919050565b610d3261182c565b610d3c60006118aa565b565b6000600760009054906101000a900473ffffffffffffffffffffffffffffffffffffffff16905090565b610d7061182c565b80600a8190555050565b606060018054610d8990612bcd565b80601f0160208091040260200160405190810160405280929190818152602001828054610db590612bcd565b8015610e025780601f10610dd757610100808354040283529160200191610e02565b820191906000526020600020905b815481529060010190602001808311610de557829003601f168201915b5050505050905090565b6000600a54905090565b60006001600983604051610e2a9190612ec8565b908152602001604051809103902060009054906101000a900460ff1660ff16149050919050565b600a5481565b610e69610e626110f4565b8383611970565b5050565b610e7e610e786110f4565b836111b5565b610ebd576040517f08c379a0000000000000000000000000000000000000000000000000000000008152600401610eb490612e6c565b60405180910390fd5b610ec984848484611adc565b50505050565b6060610eda82611b38565b9050919050565b610ee961182c565b6000610ef5600861109b565b9050610f01600861154f565b610f0b8382611c4a565b610f158183611782565b505050565b6000600560008473ffffffffffffffffffffffffffffffffffffffff1673ffffffffffffffffffffffffffffffffffffffff16815260200190815260200160002060008373ffffffffffffffffffffffffffffffffffffffff1673ffffffffffffffffffffffffffffffffffffffff16815260200190815260200160002060009054906101000a900460ff16905092915050565b610fb661182c565b600073ffffffffffffffffffffffffffffffffffffffff168173ffffffffffffffffffffffffffffffffffffffff1603611025576040517f08c379a000000000000000000000000000000000000000000000000000000000815260040161101c90613127565b60405180910390fd5b61102e816118aa565b50565b60007f01ffc9a7000000000000000000000000000000000000000000000000000000007bffffffffffffffffffffffffffffffffffffffffffffffffffffffff1916827bffffffffffffffffffffffffffffffffffffffffffffffffffffffff1916149050919050565b600081600001549050919050565b6110b281611c68565b6110f1576040517f08c379a00000000000000000000000000000000000000000000000000000000081526004016110e890613003565b60405180910390fd5b50565b600033905090565b816004600083815260200190815260200160002060006101000a81548173ffffffffffffffffffffffffffffffffffffffff021916908373ffffffffffffffffffffffffffffffffffffffff160217905550808273ffffffffffffffffffffffffffffffffffffffff1661116f83610bed565b73ffffffffffffffffffffffffffffffffffffffff167f8c5be1e5ebec7d5bd14f71427d1e84f3dd0314c0f7b2291e5b200ac8c7c3b92560405160405180910390a45050565b6000806111c183610bed565b90508073ffffffffffffffffffffffffffffffffffffffff168473ffffffffffffffffffffffffffffffffffffffff16148061120357506112028185610f1a565b5b8061124157508373ffffffffffffffffffffffffffffffffffffffff1661122984610771565b73ffffffffffffffffffffffffffffffffffffffff16145b91505092915050565b8273ffffffffffffffffffffffffffffffffffffffff1661126a82610bed565b73ffffffffffffffffffffffffffffffffffffffff16146112c0576040517f08c379a00000000000000000000000000000000000000000000000000000000081526004016112b7906131b9565b60405180910390fd5b600073ffffffffffffffffffffffffffffffffffffffff168273ffffffffffffffffffffffffffffffffffffffff160361132f576040517f08c379a00000000000000000000000000000000000000000000000000000000081526004016113269061324b565b60405180910390fd5b61133c8383836001611ca9565b8273ffffffffffffffffffffffffffffffffffffffff1661135c82610bed565b73ffffffffffffffffffffffffffffffffffffffff16146113b2576040517f08c379a00000000000000000000000000000000000000000000000000000000081526004016113a9906131b9565b60405180910390fd5b6004600082815260200190815260200160002060006101000a81549073ffffffffffffffffffffffffffffffffffffffff02191690556001600360008573ffffffffffffffffffffffffffffffffffffffff1673ffffffffffffffffffffffffffffffffffffffff168152602001908152602001600020600082825403925050819055506001600360008473ffffffffffffffffffffffffffffffffffffffff1673ffffffffffffffffffffffffffffffffffffffff16815260200190815260200160002060008282540192505081905550816002600083815260200190815260200160002060006101000a81548173ffffffffffffffffffffffffffffffffffffffff021916908373ffffffffffffffffffffffffffffffffffffffff160217905550808273ffffffffffffffffffffffffffffffffffffffff168473ffffffffffffffffffffffffffffffffffffffff167fddf252ad1be2c89b69c2b068fc378daa952ba7f163c4a11628f55a4df523b3ef60405160405180910390a461153e8383836001611dcf565b505050565b61154c81611dd5565b50565b6001816000016000828254019250508190555050565b600073ffffffffffffffffffffffffffffffffffffffff168273ffffffffffffffffffffffffffffffffffffffff16036115d4576040517f08c379a00000000000000000000000000000000000000000000000000000000081526004016115cb906132b7565b60405180910390fd5b6115dd81611c68565b1561161d576040517f08c379a000000000000000000000000000000000000000000000000000000000815260040161161490613323565b60405180910390fd5b61162b600083836001611ca9565b61163481611c68565b15611674576040517f08c379a000000000000000000000000000000000000000000000000000000000815260040161166b90613323565b60405180910390fd5b6001600360008473ffffffffffffffffffffffffffffffffffffffff1673ffffffffffffffffffffffffffffffffffffffff16815260200190815260200160002060008282540192505081905550816002600083815260200190815260200160002060006101000a81548173ffffffffffffffffffffffffffffffffffffffff021916908373ffffffffffffffffffffffffffffffffffffffff160217905550808273ffffffffffffffffffffffffffffffffffffffff16600073ffffffffffffffffffffffffffffffffffffffff167fddf252ad1be2c89b69c2b068fc378daa952ba7f163c4a11628f55a4df523b3ef60405160405180910390a461177e600083836001611dcf565b5050565b61178b82611c68565b6117ca576040517f08c379a00000000000000000000000000000000000000000000000000000000081526004016117c1906133b5565b60405180910390fd5b806006600084815260200190815260200160002090816117ea9190613581565b505050565b60006002600083815260200190815260200160002060009054906101000a900473ffffffffffffffffffffffffffffffffffffffff169050919050565b6118346110f4565b73ffffffffffffffffffffffffffffffffffffffff16611852610d3e565b73ffffffffffffffffffffffffffffffffffffffff16146118a8576040517f08c379a000000000000000000000000000000000000000000000000000000000815260040161189f9061369f565b60405180910390fd5b565b6000600760009054906101000a900473ffffffffffffffffffffffffffffffffffffffff16905081600760006101000a81548173ffffffffffffffffffffffffffffffffffffffff021916908373ffffffffffffffffffffffffffffffffffffffff1602179055508173ffffffffffffffffffffffffffffffffffffffff168173ffffffffffffffffffffffffffffffffffffffff167f8be0079c531659141344cd1fd0a4f28419497f9722a3daafe3b4186f6b6457e060405160405180910390a35050565b8173ffffffffffffffffffffffffffffffffffffffff168373ffffffffffffffffffffffffffffffffffffffff16036119de576040517f08c379a00000000000000000000000000000000000000000000000000000000081526004016119d59061370b565b60405180910390fd5b80600560008573ffffffffffffffffffffffffffffffffffffffff1673ffffffffffffffffffffffffffffffffffffffff16815260200190815260200160002060008473ffffffffffffffffffffffffffffffffffffffff1673ffffffffffffffffffffffffffffffffffffffff16815260200190815260200160002060006101000a81548160ff0219169083151502179055508173ffffffffffffffffffffffffffffffffffffffff168373ffffffffffffffffffffffffffffffffffffffff167f17307eab39ab6107e8899845ad3d59bd9653f200f220920489ca2b5937696c3183604051611acf9190612552565b60405180910390a3505050565b611ae784848461124a565b611af384848484611e28565b611b32576040517f08c379a0000000000000000000000000000000000000000000000000000000008152600401611b299061379d565b60405180910390fd5b50505050565b6060611b43826110a9565b6000600660008481526020019081526020016000208054611b6390612bcd565b80601f0160208091040260200160405190810160405280929190818152602001828054611b8f90612bcd565b8015611bdc5780601f10611bb157610100808354040283529160200191611bdc565b820191906000526020600020905b815481529060010190602001808311611bbf57829003601f168201915b505050505090506000611bed611faf565b90506000815103611c02578192505050611c45565b600082511115611c37578082604051602001611c1f9291906137bd565b60405160208183030381529060405292505050611c45565b611c4084611fec565b925050505b919050565b611c64828260405180602001604052806000815250612054565b5050565b60008073ffffffffffffffffffffffffffffffffffffffff16611c8a836117ef565b73ffffffffffffffffffffffffffffffffffffffff1614159050919050565b6001811115611dc957600073ffffffffffffffffffffffffffffffffffffffff168473ffffffffffffffffffffffffffffffffffffffff1614611d3d5780600360008673ffffffffffffffffffffffffffffffffffffffff1673ffffffffffffffffffffffffffffffffffffffff1681526020019081526020016000206000828254611d359190613810565b925050819055505b600073ffffffffffffffffffffffffffffffffffffffff168373ffffffffffffffffffffffffffffffffffffffff1614611dc85780600360008573ffffffffffffffffffffffffffffffffffffffff1673ffffffffffffffffffffffffffffffffffffffff1681526020019081526020016000206000828254611dc09190613844565b925050819055505b5b50505050565b50505050565b611dde816120af565b6000600660008381526020019081526020016000208054611dfe90612bcd565b905014611e2557600660008281526020019081526020016000206000611e249190612441565b5b50565b6000611e498473ffffffffffffffffffffffffffffffffffffffff166121fd565b15611fa2578373ffffffffffffffffffffffffffffffffffffffff1663150b7a02611e726110f4565b8786866040518563ffffffff1660e01b8152600401611e9494939291906138cd565b6020604051808303816000875af1925050508015611ed057506040513d601f19601f82011682018060405250810190611ecd919061392e565b60015b611f52573d8060008114611f00576040519150601f19603f3d011682016040523d82523d6000602084013e611f05565b606091505b506000815103611f4a576040517f08c379a0000000000000000000000000000000000000000000000000000000008152600401611f419061379d565b60405180910390fd5b805181602001fd5b63150b7a0260e01b7bffffffffffffffffffffffffffffffffffffffffffffffffffffffff1916817bffffffffffffffffffffffffffffffffffffffffffffffffffffffff191614915050611fa7565b600190505b949350505050565b60606040518060400160405280600881526020017f68747470733a2f2f000000000000000000000000000000000000000000000000815250905090565b6060611ff7826110a9565b6000612001611faf565b90506000815111612021576040518060200160405280600081525061204c565b8061202b84612220565b60405160200161203c9291906137bd565b6040516020818303038152906040525b915050919050565b61205e8383611565565b61206b6000848484611e28565b6120aa576040517f08c379a00000000000000000000000000000000000000000000000000000000081526004016120a19061379d565b60405180910390fd5b505050565b60006120ba82610bed565b90506120ca816000846001611ca9565b6120d382610bed565b90506004600083815260200190815260200160002060006101000a81549073ffffffffffffffffffffffffffffffffffffffff02191690556001600360008373ffffffffffffffffffffffffffffffffffffffff1673ffffffffffffffffffffffffffffffffffffffff168152602001908152602001600020600082825403925050819055506002600083815260200190815260200160002060006101000a81549073ffffffffffffffffffffffffffffffffffffffff021916905581600073ffffffffffffffffffffffffffffffffffffffff168273ffffffffffffffffffffffffffffffffffffffff167fddf252ad1be2c89b69c2b068fc378daa952ba7f163c4a11628f55a4df523b3ef60405160405180910390a46121f9816000846001611dcf565b5050565b6000808273ffffffffffffffffffffffffffffffffffffffff163b119050919050565b60606000600161222f846122ee565b01905060008167ffffffffffffffff81111561224e5761224d6127d1565b5b6040519080825280601f01601f1916602001820160405280156122805781602001600182028036833780820191505090505b509050600082602001820190505b6001156122e3578080600190039150507f3031323334353637383961626364656600000000000000000000000000000000600a86061a8153600a85816122d7576122d661395b565b5b0494506000850361228e575b819350505050919050565b600080600090507a184f03e93ff9f4daa797ed6e38ed64bf6a1f010000000000000000831061234c577a184f03e93ff9f4daa797ed6e38ed64bf6a1f01000000000000000083816123425761234161395b565b5b0492506040810190505b6d04ee2d6d415b85acef81000000008310612389576d04ee2d6d415b85acef8100000000838161237f5761237e61395b565b5b0492506020810190505b662386f26fc1000083106123b857662386f26fc1000083816123ae576123ad61395b565b5b0492506010810190505b6305f5e10083106123e1576305f5e10083816123d7576123d661395b565b5b0492506008810190505b61271083106124065761271083816123fc576123fb61395b565b5b0492506004810190505b60648310612429576064838161241f5761241e61395b565b5b0492506002810190505b600a8310612438576001810190505b80915050919050565b50805461244d90612bcd565b6000825580601f1061245f575061247e565b601f01602090049060005260206000209081019061247d9190612481565b5b50565b5b8082111561249a576000816000905550600101612482565b5090565b6000604051905090565b600080fd5b600080fd5b60007fffffffff0000000000000000000000000000000000000000000000000000000082169050919050565b6124e7816124b2565b81146124f257600080fd5b50565b600081359050612504816124de565b92915050565b6000602082840312156125205761251f6124a8565b5b600061252e848285016124f5565b91505092915050565b60008115159050919050565b61254c81612537565b82525050565b60006020820190506125676000830184612543565b92915050565b6000819050919050565b6125808161256d565b82525050565b600060208201905061259b6000830184612577565b92915050565b600081519050919050565b600082825260208201905092915050565b60005b838110156125db5780820151818401526020810190506125c0565b60008484015250505050565b6000601f19601f8301169050919050565b6000612603826125a1565b61260d81856125ac565b935061261d8185602086016125bd565b612626816125e7565b840191505092915050565b6000602082019050818103600083015261264b81846125f8565b905092915050565b61265c8161256d565b811461266757600080fd5b50565b60008135905061267981612653565b92915050565b600060208284031215612695576126946124a8565b5b60006126a38482850161266a565b91505092915050565b600073ffffffffffffffffffffffffffffffffffffffff82169050919050565b60006126d7826126ac565b9050919050565b6126e7816126cc565b82525050565b600060208201905061270260008301846126de565b92915050565b612711816126cc565b811461271c57600080fd5b50565b60008135905061272e81612708565b92915050565b6000806040838503121561274b5761274a6124a8565b5b60006127598582860161271f565b925050602061276a8582860161266a565b9150509250929050565b60008060006060848603121561278d5761278c6124a8565b5b600061279b8682870161271f565b93505060206127ac8682870161271f565b92505060406127bd8682870161266a565b9150509250925092565b600080fd5b600080fd5b7f4e487b7100000000000000000000000000000000000000000000000000000000600052604160045260246000fd5b612809826125e7565b810181811067ffffffffffffffff82111715612828576128276127d1565b5b80604052505050565b600061283b61249e565b90506128478282612800565b919050565b600067ffffffffffffffff821115612867576128666127d1565b5b612870826125e7565b9050602081019050919050565b82818337600083830152505050565b600061289f61289a8461284c565b612831565b9050828152602081018484840111156128bb576128ba6127cc565b5b6128c684828561287d565b509392505050565b600082601f8301126128e3576128e26127c7565b5b81356128f384826020860161288c565b91505092915050565b60008060408385031215612913576129126124a8565b5b60006129218582860161271f565b925050602083013567ffffffffffffffff811115612942576129416124ad565b5b61294e858286016128ce565b9150509250929050565b60006020828403121561296e5761296d6124a8565b5b600061297c8482850161271f565b91505092915050565b60006020828403121561299b5761299a6124a8565b5b600082013567ffffffffffffffff8111156129b9576129b86124ad565b5b6129c5848285016128ce565b91505092915050565b6129d781612537565b81146129e257600080fd5b50565b6000813590506129f4816129ce565b92915050565b60008060408385031215612a1157612a106124a8565b5b6000612a1f8582860161271f565b9250506020612a30858286016129e5565b9150509250929050565b600067ffffffffffffffff821115612a5557612a546127d1565b5b612a5e826125e7565b9050602081019050919050565b6000612a7e612a7984612a3a565b612831565b905082815260208101848484011115612a9a57612a996127cc565b5b612aa584828561287d565b509392505050565b600082601f830112612ac257612ac16127c7565b5b8135612ad2848260208601612a6b565b91505092915050565b60008060008060808587031215612af557612af46124a8565b5b6000612b038782880161271f565b9450506020612b148782880161271f565b9350506040612b258782880161266a565b925050606085013567ffffffffffffffff811115612b4657612b456124ad565b5b612b5287828801612aad565b91505092959194509250565b60008060408385031215612b7557612b746124a8565b5b6000612b838582860161271f565b9250506020612b948582860161271f565b9150509250929050565b7f4e487b7100000000000000000000000000000000000000000000000000000000600052602260045260246000fd5b60006002820490506001821680612be557607f821691505b602082108103612bf857612bf7612b9e565b5b50919050565b7f4552433732313a20617070726f76616c20746f2063757272656e74206f776e6560008201527f7200000000000000000000000000000000000000000000000000000000000000602082015250565b6000612c5a6021836125ac565b9150612c6582612bfe565b604082019050919050565b60006020820190508181036000830152612c8981612c4d565b9050919050565b7f4552433732313a20617070726f76652063616c6c6572206973206e6f7420746f60008201527f6b656e206f776e6572206f7220617070726f76656420666f7220616c6c000000602082015250565b6000612cec603d836125ac565b9150612cf782612c90565b604082019050919050565b60006020820190508181036000830152612d1b81612cdf565b9050919050565b7f4e6f7420656e6f75676820455448000000000000000000000000000000000000600082015250565b6000612d58600e836125ac565b9150612d6382612d22565b602082019050919050565b60006020820190508181036000830152612d8781612d4b565b9050919050565b7f4e6f7420746f6b656e206f776e65720000000000000000000000000000000000600082015250565b6000612dc4600f836125ac565b9150612dcf82612d8e565b602082019050919050565b60006020820190508181036000830152612df381612db7565b9050919050565b7f4552433732313a2063616c6c6572206973206e6f7420746f6b656e206f776e6560008201527f72206f7220617070726f76656400000000000000000000000000000000000000602082015250565b6000612e56602d836125ac565b9150612e6182612dfa565b604082019050919050565b60006020820190508181036000830152612e8581612e49565b9050919050565b600081905092915050565b6000612ea2826125a1565b612eac8185612e8c565b9350612ebc8185602086016125bd565b80840191505092915050565b6000612ed48284612e97565b915081905092915050565b7f4e465420616c7265616479206d696e7465642100000000000000000000000000600082015250565b6000612f156013836125ac565b9150612f2082612edf565b602082019050919050565b60006020820190508181036000830152612f4481612f08565b9050919050565b7f4e65656420746f20706179207570210000000000000000000000000000000000600082015250565b6000612f81600f836125ac565b9150612f8c82612f4b565b602082019050919050565b60006020820190508181036000830152612fb081612f74565b9050919050565b7f4552433732313a20696e76616c696420746f6b656e2049440000000000000000600082015250565b6000612fed6018836125ac565b9150612ff882612fb7565b602082019050919050565b6000602082019050818103600083015261301c81612fe0565b9050919050565b7f4552433732313a2061646472657373207a65726f206973206e6f74206120766160008201527f6c6964206f776e65720000000000000000000000000000000000000000000000602082015250565b600061307f6029836125ac565b915061308a82613023565b604082019050919050565b600060208201905081810360008301526130ae81613072565b9050919050565b7f4f776e61626c653a206e6577206f776e657220697320746865207a65726f206160008201527f6464726573730000000000000000000000000000000000000000000000000000602082015250565b60006131116026836125ac565b915061311c826130b5565b604082019050919050565b6000602082019050818103600083015261314081613104565b9050919050565b7f4552433732313a207472616e736665722066726f6d20696e636f72726563742060008201527f6f776e6572000000000000000000000000000000000000000000000000000000602082015250565b60006131a36025836125ac565b91506131ae82613147565b604082019050919050565b600060208201905081810360008301526131d281613196565b9050919050565b7f4552433732313a207472616e7366657220746f20746865207a65726f2061646460008201527f7265737300000000000000000000000000000000000000000000000000000000602082015250565b60006132356024836125ac565b9150613240826131d9565b604082019050919050565b6000602082019050818103600083015261326481613228565b9050919050565b7f4552433732313a206d696e7420746f20746865207a65726f2061646472657373600082015250565b60006132a16020836125ac565b91506132ac8261326b565b602082019050919050565b600060208201905081810360008301526132d081613294565b9050919050565b7f4552433732313a20746f6b656e20616c7265616479206d696e74656400000000600082015250565b600061330d601c836125ac565b9150613318826132d7565b602082019050919050565b6000602082019050818103600083015261333c81613300565b9050919050565b7f45524337323155524953746f726167653a2055524920736574206f66206e6f6e60008201527f6578697374656e7420746f6b656e000000000000000000000000000000000000602082015250565b600061339f602e836125ac565b91506133aa82613343565b604082019050919050565b600060208201905081810360008301526133ce81613392565b9050919050565b60008190508160005260206000209050919050565b60006020601f8301049050919050565b600082821b905092915050565b6000600883026134377fffffffffffffffffffffffffffffffffffffffffffffffffffffffffffffffff826133fa565b61344186836133fa565b95508019841693508086168417925050509392505050565b6000819050919050565b600061347e6134796134748461256d565b613459565b61256d565b9050919050565b6000819050919050565b61349883613463565b6134ac6134a482613485565b848454613407565b825550505050565b600090565b6134c16134b4565b6134cc81848461348f565b505050565b5b818110156134f0576134e56000826134b9565b6001810190506134d2565b5050565b601f82111561353557613506816133d5565b61350f846133ea565b8101602085101561351e578190505b61353261352a856133ea565b8301826134d1565b50505b505050565b600082821c905092915050565b60006135586000198460080261353a565b1980831691505092915050565b60006135718383613547565b9150826002028217905092915050565b61358a826125a1565b67ffffffffffffffff8111156135a3576135a26127d1565b5b6135ad8254612bcd565b6135b88282856134f4565b600060209050601f8311600181146135eb57600084156135d9578287015190505b6135e38582613565565b86555061364b565b601f1984166135f9866133d5565b60005b82811015613621578489015182556001820191506020850194506020810190506135fc565b8683101561363e578489015161363a601f891682613547565b8355505b6001600288020188555050505b505050505050565b7f4f776e61626c653a2063616c6c6572206973206e6f7420746865206f776e6572600082015250565b60006136896020836125ac565b915061369482613653565b602082019050919050565b600060208201905081810360008301526136b88161367c565b9050919050565b7f4552433732313a20617070726f766520746f2063616c6c657200000000000000600082015250565b60006136f56019836125ac565b9150613700826136bf565b602082019050919050565b60006020820190508181036000830152613724816136e8565b9050919050565b7f4552433732313a207472616e7366657220746f206e6f6e20455243373231526560008201527f63656976657220696d706c656d656e7465720000000000000000000000000000602082015250565b60006137876032836125ac565b91506137928261372b565b604082019050919050565b600060208201905081810360008301526137b68161377a565b9050919050565b60006137c98285612e97565b91506137d58284612e97565b91508190509392505050565b7f4e487b7100000000000000000000000000000000000000000000000000000000600052601160045260246000fd5b600061381b8261256d565b91506138268361256d565b925082820390508181111561383e5761383d6137e1565b5b92915050565b600061384f8261256d565b915061385a8361256d565b9250828201905080821115613872576138716137e1565b5b92915050565b600081519050919050565b600082825260208201905092915050565b600061389f82613878565b6138a98185613883565b93506138b98185602086016125bd565b6138c2816125e7565b840191505092915050565b60006080820190506138e260008301876126de565b6138ef60208301866126de565b6138fc6040830185612577565b818103606083015261390e8184613894565b905095945050505050565b600081519050613928816124de565b92915050565b600060208284031215613944576139436124a8565b5b600061395284828501613919565b91505092915050565b7f4e487b7100000000000000000000000000000000000000000000000000000000600052601260045260246000fdfea26469706673582212204568d81c81e268aad117d909064a059c85ec752944613318958d49a6b773822964736f6c63430008110033",
  "linkReferences": {},
  "deployedLinkReferences": {}
}